{
  "_format": "hh-sol-artifact-1",
  "contractName": "AdvancedPostManager",
  "sourceName": "contracts/AdvancedPostManager.sol",
  "abi": [
    {
      "inputs": [],
      "stateMutability": "nonpayable",
      "type": "constructor"
    },
    {
      "anonymous": false,
      "inputs": [
        {
          "indexed": true,
          "internalType": "uint256",
          "name": "postId",
          "type": "uint256"
        },
        {
          "indexed": false,
          "internalType": "string",
          "name": "ipfsCID",
          "type": "string"
        }
      ],
      "name": "PostApproved",
      "type": "event"
    },
    {
      "anonymous": false,
      "inputs": [
        {
          "indexed": true,
          "internalType": "uint256",
          "name": "postId",
          "type": "uint256"
        },
        {
          "indexed": false,
          "internalType": "string",
          "name": "reason",
          "type": "string"
        }
      ],
      "name": "PostFailed",
      "type": "event"
    },
    {
      "anonymous": false,
      "inputs": [
        {
          "indexed": true,
          "internalType": "uint256",
          "name": "postId",
          "type": "uint256"
        },
        {
          "indexed": false,
          "internalType": "uint256",
          "name": "similarityScore",
          "type": "uint256"
        },
        {
          "indexed": false,
          "internalType": "string",
          "name": "mostSimilarPostId",
          "type": "string"
        }
      ],
      "name": "PostRejected",
      "type": "event"
    },
    {
      "anonymous": false,
      "inputs": [
        {
          "indexed": true,
          "internalType": "uint256",
          "name": "postId",
          "type": "uint256"
        },
        {
          "indexed": true,
          "internalType": "address",
          "name": "author",
          "type": "address"
        },
        {
          "indexed": false,
          "internalType": "string",
          "name": "username",
          "type": "string"
        }
      ],
      "name": "PostSubmitted",
      "type": "event"
    },
    {
      "anonymous": false,
      "inputs": [
        {
          "indexed": true,
          "internalType": "uint256",
          "name": "postId",
          "type": "uint256"
        }
      ],
      "name": "SimilarityCheckRequested",
      "type": "event"
    },
    {
      "inputs": [],
      "name": "getAllApprovedPostsWithContent",
      "outputs": [
        {
          "components": [
            {
              "internalType": "uint256",
              "name": "id",
              "type": "uint256"
            },
            {
              "internalType": "address",
              "name": "author",
              "type": "address"
            },
            {
              "internalType": "string",
              "name": "username",
              "type": "string"
            },
            {
              "internalType": "string",
              "name": "ipfsCID",
              "type": "string"
            },
            {
              "internalType": "uint256",
              "name": "timestamp",
              "type": "uint256"
            },
            {
              "internalType": "enum AdvancedPostManager.PostStatus",
              "name": "status",
              "type": "uint8"
            },
            {
              "internalType": "uint256",
              "name": "similarityScore",
              "type": "uint256"
            },
            {
              "internalType": "string",
              "name": "mostSimilarPostId",
              "type": "string"
            }
          ],
          "internalType": "struct AdvancedPostManager.Post[]",
          "name": "",
          "type": "tuple[]"
        }
      ],
      "stateMutability": "view",
      "type": "function"
    },
    {
      "inputs": [
        {
          "internalType": "uint256",
          "name": "offset",
          "type": "uint256"
        },
        {
          "internalType": "uint256",
          "name": "limit",
          "type": "uint256"
        }
      ],
      "name": "getApprovedPosts",
      "outputs": [
        {
          "components": [
            {
              "internalType": "uint256",
              "name": "id",
              "type": "uint256"
            },
            {
              "internalType": "address",
              "name": "author",
              "type": "address"
            },
            {
              "internalType": "string",
              "name": "username",
              "type": "string"
            },
            {
              "internalType": "string",
              "name": "ipfsCID",
              "type": "string"
            },
            {
              "internalType": "uint256",
              "name": "timestamp",
              "type": "uint256"
            },
            {
              "internalType": "enum AdvancedPostManager.PostStatus",
              "name": "status",
              "type": "uint8"
            },
            {
              "internalType": "uint256",
              "name": "similarityScore",
              "type": "uint256"
            },
            {
              "internalType": "string",
              "name": "mostSimilarPostId",
              "type": "string"
            }
          ],
          "internalType": "struct AdvancedPostManager.Post[]",
          "name": "",
          "type": "tuple[]"
        }
      ],
      "stateMutability": "view",
      "type": "function"
    },
    {
      "inputs": [
        {
          "internalType": "uint256",
          "name": "postId",
          "type": "uint256"
        }
      ],
      "name": "getPost",
      "outputs": [
        {
          "components": [
            {
              "internalType": "uint256",
              "name": "id",
              "type": "uint256"
            },
            {
              "internalType": "address",
              "name": "author",
              "type": "address"
            },
            {
              "internalType": "string",
              "name": "username",
              "type": "string"
            },
            {
              "internalType": "string",
              "name": "ipfsCID",
              "type": "string"
            },
            {
              "internalType": "uint256",
              "name": "timestamp",
              "type": "uint256"
            },
            {
              "internalType": "enum AdvancedPostManager.PostStatus",
              "name": "status",
              "type": "uint8"
            },
            {
              "internalType": "uint256",
              "name": "similarityScore",
              "type": "uint256"
            },
            {
              "internalType": "string",
              "name": "mostSimilarPostId",
              "type": "string"
            }
          ],
          "internalType": "struct AdvancedPostManager.Post",
          "name": "",
          "type": "tuple"
        }
      ],
      "stateMutability": "view",
      "type": "function"
    },
    {
      "inputs": [
        {
          "internalType": "address",
          "name": "user",
          "type": "address"
        }
      ],
      "name": "getUserPosts",
      "outputs": [
        {
          "internalType": "uint256[]",
          "name": "",
          "type": "uint256[]"
        }
      ],
      "stateMutability": "view",
      "type": "function"
    },
    {
      "inputs": [
        {
          "internalType": "uint256",
          "name": "postId",
          "type": "uint256"
        },
        {
          "internalType": "string",
          "name": "reason",
          "type": "string"
        }
      ],
      "name": "markPostFailed",
      "outputs": [],
      "stateMutability": "nonpayable",
      "type": "function"
    },
    {
      "inputs": [],
      "name": "oracle",
      "outputs": [
        {
          "internalType": "address",
          "name": "",
          "type": "address"
        }
      ],
      "stateMutability": "view",
      "type": "function"
    },
    {
      "inputs": [],
      "name": "postCount",
      "outputs": [
        {
          "internalType": "uint256",
          "name": "",
          "type": "uint256"
        }
      ],
      "stateMutability": "view",
      "type": "function"
    },
    {
      "inputs": [
        {
          "internalType": "uint256",
          "name": "",
          "type": "uint256"
        }
      ],
      "name": "posts",
      "outputs": [
        {
          "internalType": "uint256",
          "name": "id",
          "type": "uint256"
        },
        {
          "internalType": "address",
          "name": "author",
          "type": "address"
        },
        {
          "internalType": "string",
          "name": "username",
          "type": "string"
        },
        {
          "internalType": "string",
          "name": "ipfsCID",
          "type": "string"
        },
        {
          "internalType": "uint256",
          "name": "timestamp",
          "type": "uint256"
        },
        {
          "internalType": "enum AdvancedPostManager.PostStatus",
          "name": "status",
          "type": "uint8"
        },
        {
          "internalType": "uint256",
          "name": "similarityScore",
          "type": "uint256"
        },
        {
          "internalType": "string",
          "name": "mostSimilarPostId",
          "type": "string"
        }
      ],
      "stateMutability": "view",
      "type": "function"
    },
    {
      "inputs": [
        {
          "internalType": "uint256",
          "name": "postId",
          "type": "uint256"
        },
        {
          "internalType": "uint256",
          "name": "similarityScore",
          "type": "uint256"
        },
        {
          "internalType": "string",
          "name": "mostSimilarPostId",
          "type": "string"
        },
        {
          "internalType": "string",
          "name": "ipfsCID",
          "type": "string"
        }
      ],
      "name": "processSimilarityResult",
      "outputs": [],
      "stateMutability": "nonpayable",
      "type": "function"
    },
    {
      "inputs": [
        {
          "internalType": "address",
          "name": "_oracle",
          "type": "address"
        }
      ],
      "name": "setOracle",
      "outputs": [],
      "stateMutability": "nonpayable",
      "type": "function"
    },
    {
      "inputs": [
        {
          "internalType": "uint256",
          "name": "_threshold",
          "type": "uint256"
        }
      ],
      "name": "setSimilarityThreshold",
      "outputs": [],
      "stateMutability": "nonpayable",
      "type": "function"
    },
    {
      "inputs": [],
      "name": "similarityThreshold",
      "outputs": [
        {
          "internalType": "uint256",
          "name": "",
          "type": "uint256"
        }
      ],
      "stateMutability": "view",
      "type": "function"
    },
    {
      "inputs": [
        {
          "internalType": "string",
          "name": "username",
          "type": "string"
        }
      ],
      "name": "submitPost",
      "outputs": [
        {
          "internalType": "uint256",
          "name": "",
          "type": "uint256"
        }
      ],
      "stateMutability": "nonpayable",
      "type": "function"
    },
    {
      "inputs": [
        {
          "internalType": "address",
          "name": "",
          "type": "address"
        },
        {
          "internalType": "uint256",
          "name": "",
          "type": "uint256"
        }
      ],
      "name": "userPosts",
      "outputs": [
        {
          "internalType": "uint256",
          "name": "",
          "type": "uint256"
        }
      ],
      "stateMutability": "view",
      "type": "function"
    }
  ],
  "bytecode": "0x6080604052605060015534801561001557600080fd5b5033600260006101000a81548173ffffffffffffffffffffffffffffffffffffffff021916908373ffffffffffffffffffffffffffffffffffffffff160217905550612d67806100666000396000f3fe608060405234801561001057600080fd5b50600436106100e95760003560e01c80638064d1491161008c5780639a2194a9116100665780639a2194a914610263578063a599774614610293578063c1727583146102c3578063d3a64c63146102e1576100e9565b80638064d149146101fb57806393d36f8b1461022b57806395e8ca1914610247576100e9565b8063217949ec116100c8578063217949ec1461016157806340731c24146101915780637adbf973146101c15780637dc0d1d0146101dd576100e9565b8062f499b4146100ee5780630b1e7f831461010c57806317906c2e14610143575b600080fd5b6100f66102fd565b6040516101039190612754565b60405180910390f35b61012660048036038101906101219190612126565b61083a565b60405161013a9897969594939291906128b7565b60405180910390f35b61014b610a47565b604051610158919061289c565b60405180910390f35b61017b600480360381019061017691906121a3565b610a4d565b6040516101889190612754565b60405180910390f35b6101ab60048036038101906101a69190612126565b610fef565b6040516101b8919061287a565b60405180910390f35b6101db60048036038101906101d69190612080565b61131f565b005b6101e56113f3565b6040516101f29190612739565b60405180910390f35b610215600480360381019061021091906120a9565b611419565b604051610222919061289c565b60405180910390f35b610245600480360381019061024091906121df565b61144a565b005b610261600480360381019061025c919061214f565b6117c5565b005b61027d60048036038101906102789190612080565b611a1c565b60405161028a9190612776565b60405180910390f35b6102ad60048036038101906102a891906120e5565b611ab3565b6040516102ba919061289c565b60405180910390f35b6102cb611dd4565b6040516102d8919061289c565b60405180910390f35b6102fb60048036038101906102f69190612126565b611dda565b005b6060600080600190505b60005481116103ce576002600381111561034a577f4e487b7100000000000000000000000000000000000000000000000000000000600052602160045260246000fd5b6003600083815260200190815260200160002060050160009054906101000a900460ff1660038111156103a6577f4e487b7100000000000000000000000000000000000000000000000000000000600052602160045260246000fd5b14156103bb5781806103b790612bd9565b9250505b80806103c690612bd9565b915050610307565b5060008167ffffffffffffffff811115610411577f4e487b7100000000000000000000000000000000000000000000000000000000600052604160045260246000fd5b60405190808252806020026020018201604052801561044a57816020015b610437611eb8565b81526020019060019003908161042f5790505b509050600080600190505b60005481116108305760026003811115610498577f4e487b7100000000000000000000000000000000000000000000000000000000600052602160045260246000fd5b6003600083815260200190815260200160002060050160009054906101000a900460ff1660038111156104f4577f4e487b7100000000000000000000000000000000000000000000000000000000600052602160045260246000fd5b141561081d576003600082815260200190815260200160002060405180610100016040529081600082015481526020016001820160009054906101000a900473ffffffffffffffffffffffffffffffffffffffff1673ffffffffffffffffffffffffffffffffffffffff1673ffffffffffffffffffffffffffffffffffffffff16815260200160028201805461058990612ba7565b80601f01602080910402602001604051908101604052809291908181526020018280546105b590612ba7565b80156106025780601f106105d757610100808354040283529160200191610602565b820191906000526020600020905b8154815290600101906020018083116105e557829003601f168201915b5050505050815260200160038201805461061b90612ba7565b80601f016020809104026020016040519081016040528092919081815260200182805461064790612ba7565b80156106945780601f1061066957610100808354040283529160200191610694565b820191906000526020600020905b81548152906001019060200180831161067757829003601f168201915b50505050508152602001600482015481526020016005820160009054906101000a900460ff1660038111156106f2577f4e487b7100000000000000000000000000000000000000000000000000000000600052602160045260246000fd5b600381111561072a577f4e487b7100000000000000000000000000000000000000000000000000000000600052602160045260246000fd5b81526020016006820154815260200160078201805461074890612ba7565b80601f016020809104026020016040519081016040528092919081815260200182805461077490612ba7565b80156107c15780601f10610796576101008083540402835291602001916107c1565b820191906000526020600020905b8154815290600101906020018083116107a457829003601f168201915b505050505081525050838381518110610803577f4e487b7100000000000000000000000000000000000000000000000000000000600052603260045260246000fd5b6020026020010181905250818061081990612bd9565b9250505b808061082890612bd9565b915050610455565b5081935050505090565b60036020528060005260406000206000915090508060000154908060010160009054906101000a900473ffffffffffffffffffffffffffffffffffffffff169080600201805461088990612ba7565b80601f01602080910402602001604051908101604052809291908181526020018280546108b590612ba7565b80156109025780601f106108d757610100808354040283529160200191610902565b820191906000526020600020905b8154815290600101906020018083116108e557829003601f168201915b50505050509080600301805461091790612ba7565b80601f016020809104026020016040519081016040528092919081815260200182805461094390612ba7565b80156109905780601f1061096557610100808354040283529160200191610990565b820191906000526020600020905b81548152906001019060200180831161097357829003601f168201915b5050505050908060040154908060050160009054906101000a900460ff16908060060154908060070180546109c490612ba7565b80601f01602080910402602001604051908101604052809291908181526020018280546109f090612ba7565b8015610a3d5780601f10610a1257610100808354040283529160200191610a3d565b820191906000526020600020905b815481529060010190602001808311610a2057829003601f168201915b5050505050905088565b60005481565b6060600080600190505b6000548111610b1e5760026003811115610a9a577f4e487b7100000000000000000000000000000000000000000000000000000000600052602160045260246000fd5b6003600083815260200190815260200160002060050160009054906101000a900460ff166003811115610af6577f4e487b7100000000000000000000000000000000000000000000000000000000600052602160045260246000fd5b1415610b0b578180610b0790612bd9565b9250505b8080610b1690612bd9565b915050610a57565b506000839050818486610b319190612a7a565b1115610b5557848211610b45576000610b52565b8482610b519190612ad0565b5b90505b60008167ffffffffffffffff811115610b97577f4e487b7100000000000000000000000000000000000000000000000000000000600052604160045260246000fd5b604051908082528060200260200182016040528015610bd057816020015b610bbd611eb8565b815260200190600190039081610bb55790505b5090506000806000600190505b6000548111158015610bee57508483105b15610fe05760026003811115610c2d577f4e487b7100000000000000000000000000000000000000000000000000000000600052602160045260246000fd5b6003600083815260200190815260200160002060050160009054906101000a900460ff166003811115610c89577f4e487b7100000000000000000000000000000000000000000000000000000000600052602160045260246000fd5b1415610fcd57888210610fbd576003600082815260200190815260200160002060405180610100016040529081600082015481526020016001820160009054906101000a900473ffffffffffffffffffffffffffffffffffffffff1673ffffffffffffffffffffffffffffffffffffffff1673ffffffffffffffffffffffffffffffffffffffff168152602001600282018054610d2590612ba7565b80601f0160208091040260200160405190810160405280929190818152602001828054610d5190612ba7565b8015610d9e5780601f10610d7357610100808354040283529160200191610d9e565b820191906000526020600020905b815481529060010190602001808311610d8157829003601f168201915b50505050508152602001600382018054610db790612ba7565b80601f0160208091040260200160405190810160405280929190818152602001828054610de390612ba7565b8015610e305780601f10610e0557610100808354040283529160200191610e30565b820191906000526020600020905b815481529060010190602001808311610e1357829003601f168201915b50505050508152602001600482015481526020016005820160009054906101000a900460ff166003811115610e8e577f4e487b7100000000000000000000000000000000000000000000000000000000600052602160045260246000fd5b6003811115610ec6577f4e487b7100000000000000000000000000000000000000000000000000000000600052602160045260246000fd5b815260200160068201548152602001600782018054610ee490612ba7565b80601f0160208091040260200160405190810160405280929190818152602001828054610f1090612ba7565b8015610f5d5780601f10610f3257610100808354040283529160200191610f5d565b820191906000526020600020905b815481529060010190602001808311610f4057829003601f168201915b505050505081525050848481518110610f9f577f4e487b7100000000000000000000000000000000000000000000000000000000600052603260045260246000fd5b60200260200101819052508280610fb590612bd9565b935050610fcc565b8180610fc890612bd9565b9250505b5b8080610fd890612bd9565b915050610bdd565b50829550505050505092915050565b610ff7611eb8565b60005482111580156110095750600082115b611048576040517f08c379a000000000000000000000000000000000000000000000000000000000815260040161103f906127ba565b60405180910390fd5b6003600083815260200190815260200160002060405180610100016040529081600082015481526020016001820160009054906101000a900473ffffffffffffffffffffffffffffffffffffffff1673ffffffffffffffffffffffffffffffffffffffff1673ffffffffffffffffffffffffffffffffffffffff1681526020016002820180546110d790612ba7565b80601f016020809104026020016040519081016040528092919081815260200182805461110390612ba7565b80156111505780601f1061112557610100808354040283529160200191611150565b820191906000526020600020905b81548152906001019060200180831161113357829003601f168201915b5050505050815260200160038201805461116990612ba7565b80601f016020809104026020016040519081016040528092919081815260200182805461119590612ba7565b80156111e25780601f106111b7576101008083540402835291602001916111e2565b820191906000526020600020905b8154815290600101906020018083116111c557829003601f168201915b50505050508152602001600482015481526020016005820160009054906101000a900460ff166003811115611240577f4e487b7100000000000000000000000000000000000000000000000000000000600052602160045260246000fd5b6003811115611278577f4e487b7100000000000000000000000000000000000000000000000000000000600052602160045260246000fd5b81526020016006820154815260200160078201805461129690612ba7565b80601f01602080910402602001604051908101604052809291908181526020018280546112c290612ba7565b801561130f5780601f106112e45761010080835404028352916020019161130f565b820191906000526020600020905b8154815290600101906020018083116112f257829003601f168201915b5050505050815250509050919050565b600260009054906101000a900473ffffffffffffffffffffffffffffffffffffffff1673ffffffffffffffffffffffffffffffffffffffff163373ffffffffffffffffffffffffffffffffffffffff16146113af576040517f08c379a00000000000000000000000000000000000000000000000000000000081526004016113a69061285a565b60405180910390fd5b80600260006101000a81548173ffffffffffffffffffffffffffffffffffffffff021916908373ffffffffffffffffffffffffffffffffffffffff16021790555050565b600260009054906101000a900473ffffffffffffffffffffffffffffffffffffffff1681565b6004602052816000526040600020818154811061143557600080fd5b90600052602060002001600091509150505481565b600260009054906101000a900473ffffffffffffffffffffffffffffffffffffffff1673ffffffffffffffffffffffffffffffffffffffff163373ffffffffffffffffffffffffffffffffffffffff16146114da576040517f08c379a00000000000000000000000000000000000000000000000000000000081526004016114d19061285a565b60405180910390fd5b60005484111580156114ec5750600084115b61152b576040517f08c379a0000000000000000000000000000000000000000000000000000000008152600401611522906127ba565b60405180910390fd5b60006003811115611565577f4e487b7100000000000000000000000000000000000000000000000000000000600052602160045260246000fd5b6003600086815260200190815260200160002060050160009054906101000a900460ff1660038111156115c1577f4e487b7100000000000000000000000000000000000000000000000000000000600052602160045260246000fd5b14611601576040517f08c379a00000000000000000000000000000000000000000000000000000000081526004016115f89061281a565b60405180910390fd5b600060036000868152602001908152602001600020905083816006018190555082816007019080519060200190611639929190611f4b565b5060015484106116d55760018160050160006101000a81548160ff02191690836003811115611691577f4e487b7100000000000000000000000000000000000000000000000000000000600052602160045260246000fd5b0217905550847f905653cd683904e0dcedb1005002dcbd3561ee228842b8991b20213042f1dc4685856040516116c892919061294a565b60405180910390a26117be565b6000825111611719576040517f08c379a0000000000000000000000000000000000000000000000000000000008152600401611710906127da565b60405180910390fd5b60028160050160006101000a81548160ff02191690836003811115611767577f4e487b7100000000000000000000000000000000000000000000000000000000600052602160045260246000fd5b021790555081816003019080519060200190611784929190611f4b565b50847fa2bec16f49b1ed41b244b9e40e52dc001d851f616080d353821c5b782bfd8d28836040516117b59190612798565b60405180910390a25b5050505050565b600260009054906101000a900473ffffffffffffffffffffffffffffffffffffffff1673ffffffffffffffffffffffffffffffffffffffff163373ffffffffffffffffffffffffffffffffffffffff1614611855576040517f08c379a000000000000000000000000000000000000000000000000000000000815260040161184c9061285a565b60405180910390fd5b60005482111580156118675750600082115b6118a6576040517f08c379a000000000000000000000000000000000000000000000000000000000815260040161189d906127ba565b60405180910390fd5b600060038111156118e0577f4e487b7100000000000000000000000000000000000000000000000000000000600052602160045260246000fd5b6003600084815260200190815260200160002060050160009054906101000a900460ff16600381111561193c577f4e487b7100000000000000000000000000000000000000000000000000000000600052602160045260246000fd5b1461197c576040517f08c379a00000000000000000000000000000000000000000000000000000000081526004016119739061281a565b60405180910390fd5b600380600084815260200190815260200160002060050160006101000a81548160ff021916908360038111156119db577f4e487b7100000000000000000000000000000000000000000000000000000000600052602160045260246000fd5b0217905550817f0b28567157fa55b287598f97b4b88ee20e49a09f361d7669198e52d13114904382604051611a109190612798565b60405180910390a25050565b6060600460008373ffffffffffffffffffffffffffffffffffffffff1673ffffffffffffffffffffffffffffffffffffffff168152602001908152602001600020805480602002602001604051908101604052809291908181526020018280548015611aa757602002820191906000526020600020905b815481526020019060010190808311611a93575b50505050509050919050565b600080825111611af8576040517f08c379a0000000000000000000000000000000000000000000000000000000008152600401611aef906127fa565b60405180910390fd5b600080815480929190611b0a90612bd9565b919050555060405180610100016040528060005481526020013373ffffffffffffffffffffffffffffffffffffffff16815260200183815260200160405180602001604052806000815250815260200142815260200160006003811115611b9a577f4e487b7100000000000000000000000000000000000000000000000000000000600052602160045260246000fd5b8152602001600081526020016040518060200160405280600081525081525060036000805481526020019081526020016000206000820151816000015560208201518160010160006101000a81548173ffffffffffffffffffffffffffffffffffffffff021916908373ffffffffffffffffffffffffffffffffffffffff1602179055506040820151816002019080519060200190611c3a929190611f4b565b506060820151816003019080519060200190611c57929190611f4b565b506080820151816004015560a08201518160050160006101000a81548160ff02191690836003811115611cb3577f4e487b7100000000000000000000000000000000000000000000000000000000600052602160045260246000fd5b021790555060c0820151816006015560e0820151816007019080519060200190611cde929190611f4b565b50905050600460003373ffffffffffffffffffffffffffffffffffffffff1673ffffffffffffffffffffffffffffffffffffffff16815260200190815260200160002060005490806001815401808255809150506001900390600052602060002001600090919091909150553373ffffffffffffffffffffffffffffffffffffffff166000547f80170991229f531e5b28e31c3a2e55cd1fa077ccf9d6af8fdc85142983f9a81c84604051611d939190612798565b60405180910390a36000547f3184c06d9dac4dd3996d701a56ce198b7fba9106e885178abf3343ba86abdd9260405160405180910390a26000549050919050565b60015481565b600260009054906101000a900473ffffffffffffffffffffffffffffffffffffffff1673ffffffffffffffffffffffffffffffffffffffff163373ffffffffffffffffffffffffffffffffffffffff1614611e6a576040517f08c379a0000000000000000000000000000000000000000000000000000000008152600401611e619061285a565b60405180910390fd5b6064811115611eae576040517f08c379a0000000000000000000000000000000000000000000000000000000008152600401611ea59061283a565b60405180910390fd5b8060018190555050565b60405180610100016040528060008152602001600073ffffffffffffffffffffffffffffffffffffffff16815260200160608152602001606081526020016000815260200160006003811115611f37577f4e487b7100000000000000000000000000000000000000000000000000000000600052602160045260246000fd5b815260200160008152602001606081525090565b828054611f5790612ba7565b90600052602060002090601f016020900481019282611f795760008555611fc0565b82601f10611f9257805160ff1916838001178555611fc0565b82800160010185558215611fc0579182015b82811115611fbf578251825591602001919060010190611fa4565b5b509050611fcd9190611fd1565b5090565b5b80821115611fea576000816000905550600101611fd2565b5090565b6000612001611ffc846129ab565b61297a565b90508281526020810184848401111561201957600080fd5b612024848285612b65565b509392505050565b60008135905061203b81612d03565b92915050565b600082601f83011261205257600080fd5b8135612062848260208601611fee565b91505092915050565b60008135905061207a81612d1a565b92915050565b60006020828403121561209257600080fd5b60006120a08482850161202c565b91505092915050565b600080604083850312156120bc57600080fd5b60006120ca8582860161202c565b92505060206120db8582860161206b565b9150509250929050565b6000602082840312156120f757600080fd5b600082013567ffffffffffffffff81111561211157600080fd5b61211d84828501612041565b91505092915050565b60006020828403121561213857600080fd5b60006121468482850161206b565b91505092915050565b6000806040838503121561216257600080fd5b60006121708582860161206b565b925050602083013567ffffffffffffffff81111561218d57600080fd5b61219985828601612041565b9150509250929050565b600080604083850312156121b657600080fd5b60006121c48582860161206b565b92505060206121d58582860161206b565b9150509250929050565b600080600080608085870312156121f557600080fd5b60006122038782880161206b565b94505060206122148782880161206b565b935050604085013567ffffffffffffffff81111561223157600080fd5b61223d87828801612041565b925050606085013567ffffffffffffffff81111561225a57600080fd5b61226687828801612041565b91505092959194509250565b600061227e838361259f565b905092915050565b6000612292838361271b565b60208301905092915050565b6122a781612b04565b82525050565b6122b681612b04565b82525050565b60006122c7826129fb565b6122d18185612a36565b9350836020820285016122e3856129db565b8060005b8581101561231f57848403895281516123008582612272565b945061230b83612a1c565b925060208a019950506001810190506122e7565b50829750879550505050505092915050565b600061233c82612a06565b6123468185612a47565b9350612351836129eb565b8060005b838110156123825781516123698882612286565b975061237483612a29565b925050600181019050612355565b5085935050505092915050565b61239881612b53565b82525050565b6123a781612b53565b82525050565b60006123b882612a11565b6123c28185612a58565b93506123d2818560208601612b74565b6123db81612cde565b840191505092915050565b60006123f182612a11565b6123fb8185612a69565b935061240b818560208601612b74565b61241481612cde565b840191505092915050565b600061242c600f83612a69565b91507f496e76616c696420706f737420494400000000000000000000000000000000006000830152602082019050919050565b600061246c601e83612a69565b91507f495046532043494420726571756972656420666f7220617070726f76616c00006000830152602082019050919050565b60006124ac601183612a69565b91507f557365726e616d652072657175697265640000000000000000000000000000006000830152602082019050919050565b60006124ec601083612a69565b91507f506f7374206e6f742070656e64696e67000000000000000000000000000000006000830152602082019050919050565b600061252c601883612a69565b91507f5468726573686f6c64206d757374206265203c3d2031303000000000000000006000830152602082019050919050565b600061256c601983612a69565b91507f4f6e6c79206f7261636c652063616e2063616c6c2074686973000000000000006000830152602082019050919050565b6000610100830160008301516125b8600086018261271b565b5060208301516125cb602086018261229e565b50604083015184820360408601526125e382826123ad565b915050606083015184820360608601526125fd82826123ad565b9150506080830151612612608086018261271b565b5060a083015161262560a086018261238f565b5060c083015161263860c086018261271b565b5060e083015184820360e086015261265082826123ad565b9150508091505092915050565b600061010083016000830151612676600086018261271b565b506020830151612689602086018261229e565b50604083015184820360408601526126a182826123ad565b915050606083015184820360608601526126bb82826123ad565b91505060808301516126d0608086018261271b565b5060a08301516126e360a086018261238f565b5060c08301516126f660c086018261271b565b5060e083015184820360e086015261270e82826123ad565b9150508091505092915050565b61272481612b49565b82525050565b61273381612b49565b82525050565b600060208201905061274e60008301846122ad565b92915050565b6000602082019050818103600083015261276e81846122bc565b905092915050565b600060208201905081810360008301526127908184612331565b905092915050565b600060208201905081810360008301526127b281846123e6565b905092915050565b600060208201905081810360008301526127d38161241f565b9050919050565b600060208201905081810360008301526127f38161245f565b9050919050565b600060208201905081810360008301526128138161249f565b9050919050565b60006020820190508181036000830152612833816124df565b9050919050565b600060208201905081810360008301526128538161251f565b9050919050565b600060208201905081810360008301526128738161255f565b9050919050565b60006020820190508181036000830152612894818461265d565b905092915050565b60006020820190506128b1600083018461272a565b92915050565b6000610100820190506128cd600083018b61272a565b6128da602083018a6122ad565b81810360408301526128ec81896123e6565b9050818103606083015261290081886123e6565b905061290f608083018761272a565b61291c60a083018661239e565b61292960c083018561272a565b81810360e083015261293b81846123e6565b90509998505050505050505050565b600060408201905061295f600083018561272a565b818103602083015261297181846123e6565b90509392505050565b6000604051905081810181811067ffffffffffffffff821117156129a1576129a0612caf565b5b8060405250919050565b600067ffffffffffffffff8211156129c6576129c5612caf565b5b601f19601f8301169050602081019050919050565b6000819050602082019050919050565b6000819050602082019050919050565b600081519050919050565b600081519050919050565b600081519050919050565b6000602082019050919050565b6000602082019050919050565b600082825260208201905092915050565b600082825260208201905092915050565b600082825260208201905092915050565b600082825260208201905092915050565b6000612a8582612b49565b9150612a9083612b49565b9250827fffffffffffffffffffffffffffffffffffffffffffffffffffffffffffffffff03821115612ac557612ac4612c22565b5b828201905092915050565b6000612adb82612b49565b9150612ae683612b49565b925082821015612af957612af8612c22565b5b828203905092915050565b6000612b0f82612b29565b9050919050565b6000819050612b2482612cef565b919050565b600073ffffffffffffffffffffffffffffffffffffffff82169050919050565b6000819050919050565b6000612b5e82612b16565b9050919050565b82818337600083830152505050565b60005b83811015612b92578082015181840152602081019050612b77565b83811115612ba1576000848401525b50505050565b60006002820490506001821680612bbf57607f821691505b60208210811415612bd357612bd2612c80565b5b50919050565b6000612be482612b49565b91507fffffffffffffffffffffffffffffffffffffffffffffffffffffffffffffffff821415612c1757612c16612c22565b5b600182019050919050565b7f4e487b7100000000000000000000000000000000000000000000000000000000600052601160045260246000fd5b7f4e487b7100000000000000000000000000000000000000000000000000000000600052602160045260246000fd5b7f4e487b7100000000000000000000000000000000000000000000000000000000600052602260045260246000fd5b7f4e487b7100000000000000000000000000000000000000000000000000000000600052604160045260246000fd5b6000601f19601f8301169050919050565b60048110612d0057612cff612c51565b5b50565b612d0c81612b04565b8114612d1757600080fd5b50565b612d2381612b49565b8114612d2e57600080fd5b5056fea26469706673582212203bb2e7d0e6b70225c2010cd58ed841e837fadce4b7210ebf52f0fc85cadb9e6064736f6c63430008000033",
  "linkReferences": {},
  "deployedLinkReferences": {}
}